:1000000065EF00F00000000000EF00F000000000CD
:0A0010000000000000000000F3D71C
:0E001C00ACB202D00000FCD75AC0ADFF1200FB
:0A002A00000E9EBA010E006E1200D7
:10003400596A56C0E9FF57C0EAFFEECF58F058504E
:10004400000A0DE058C05AF0E7DF592A59505624E7
:10005400E96E000E5720EA6EEECF58F0F0D712008A
:100064000900F5CFE6FF0006FBE10106F9E1120005
:100074001C0E466E000E476E5A0E486E000E496EF8
:10008400FF0E4A6EFF0E4B6E000E4C6E000E4D6E50
:100094002A0E4E6E000E4F6E000E506E000E516E04
:1000A400FF0E526EFF0E536E000E546E000E556E10
:1000B400AC8A900EAB6E948E949C9EAA03D0AECF65
:0600C40000F0FBD7120062
:1000CA00CFEC00F0C00E946E829082928294829855
:1000DA00829AB886020EB06E080EAF6EAC84C5DF87
:1000EA00B888B88A030E0B6E8A0E0C6E550E0D6E0A
:1000FA000D2EFED70C2EFCD70B2EFAD700000000CF
:10010A008FDF005201E1FCD7AECF29F02950410A16
:10011A000CE12A0E566E000E576E87DF0D0E5A6ED0
:10012A0078DF0A0E5A6E75DF1AD02950420A0CE19E
:10013A00380E566E000E576E78DF0D0E5A6E69DF56
:10014A000A0E5A6E66DF0BD0150E566E000E576EEB
:10015A006CDF0D0E5A6E5DDF0A0E5A6E5ADFD0D76B
:02016A00FFD7BD
:10019E0010EE15F0310E006E010E016E6C0EF66E45
:0E01AE00010EF76E000EF86E32EC00F012003B
:10016C004920646F6E277420756E646572737461B8
:04017C006E6421008C
:01018000007E
:0E018100596F7520747970656420274127003E
:0E018F00596F7520747970656420274227002F
:020000040030CA
:0E000000040C1F1EFF8381FF0FC00FE00F4096
:00000001FF
