:1000000016EF00F00000000000EF00F0000000001C
:0A0010000000000000000000F3D71C
:10001C000900F5CFE6FF0006FBE10106F9E112004D
:10002C0094909492828082920B0E0B6E260E0C6E24
:10003C005D0E0D6E0D2EFED70C2EFCD70B2EFAD7A7
:10004C0000000000828082820B0E0B6E260E0C6E5E
:10005C005D0E0D6E0D2EFED70C2EFCD70B2EFAD787
:08006C0000000000DFD7FFD700
:020000040030CA
:0E000000010C1F1EFF8381FF0FC00FE00F4099
:00000001FF
