:040000009BEF07F07B
:1000080000C018F001C017F00BC016F00CC015F0B6
:100018000101C36BC46BF2A42FD0F29A2150010ADC
:1000280002E071DB26D02150010A23E10101C16BF6
:10003800C26B800EC219006E800E005C02E1040ED5
:10004800C15D0DE2190EC125D96E000EC221DA6E0E
:10005800DE50C327000EC423C14BC22BEAD7000EC3
:10006800C41902E1000EC31902E1C29202D079EC70
:1000780007F0F294F28A10D09EAC06D0F29CD0EC35
:1000880006F09E9CF28C08D09EAA06D0F29E2DEC1B
:1000980007F09E9AF28E00D018C000F017C001F049
:0A00A80016C00BF015C00CF011009B
:1000B200010E0101E625E96E000EE721EA6EEECFA0
:1000C20003F0000E046E026A020EE625E96E000ECF
:1000D200E721EA6EEECF00F0000E016E0250001032
:0800E200006E040E002612005E
:1000EA000101E46BE56BDFC1E6F1E0C1E7F1DCDFBA
:1000FA00040E005CE16FE26BE36B000EE35D02E16C
:10010A00E151E25D13E2030EE225006E000EE321E7
:10011A00016E0050DF25D96E0150E021DA6EDE5003
:10012A00E427000EE523E24BE32BE7D7FF0EE415A5
:0A013A00006E0050FF08006E120076
:0A014400000EACB2010E006E1200B6
:10014E00D8C1E9FFD9C1EAFFEECFCAF0010E010115
:10015E00D825E96E000ED921EA6EEECFCBF0020E55
:10016E00D825006E000ED921016E00C0CCF001C062
:10017E00CDF0020EDA5D056E066A000E065A05C057
:10018E00CEF006C0CFF07E0E596F040E0524036E1E
:10019E00000E0620046E04C000F0000E04BEFF0E1A
:1001AE00016EFF0E00145A6FFF0E03145B6F080EE4
:1001BE005C6FC9C05DF1CAC05EF1CBC05FF1800E4D
:1001CE00006E800E0618005C02E1055000082AE25F
:1001DE00DB6BDC6B800EDC19006E800E0001CF191C
:1001EE00005C03E1CE510101DB5D1CE20101070E53
:1001FE00DB25006E000EDC21016E590E0024E16E2F
:10020E00010E0120E26EDB510001CC25E96E0101E9
:10021E00DC510001CD21EA6EEECFE6FF0101DB4B92
:10022E00DC2BD8D7070E0001CE25006E000ECF2195
:10023E00016E590E00240101DD6F010E0120DE6FEB
:10024E00590EDF6F010EE06F49DFDDC1E1FFDEC148
:10025E00E2FF00C0E6FF590E006E010E016E1200A5
:10026E00AECF01F0ABA202D0AB98AB8801C000F0CC
:02027E0012006C
:0A028000000E9EBA010E006E12007F
:10028A00D8C1E9FFD9C1EAFFEECFECF0010E0101B6
:10029A00D825E96E000ED921EA6EEECFEDF0020EF6
:1002AA00D825006E000ED921016E00C0EEF001C003
:1002BA00EFF0020EDA5D006E00C0F0F07E0E596FAC
:1002CA0000500F0F036E046A000E042204C000F0EF
:1002DA00000E04BEFF0E016EFF0E00145A6FFF0ED1
:1002EA0003145B6F170E5C6FE6C05DF1DB6BDC6BB2
:1002FA00800EDC19006E800E005C02E1080EDB5DE8
:10030A001BE2050EDB25006E000EDC21016E590E84
:10031A000024E16E010E0120E26EDB510001E725A7
:10032A00E96E0101DC510001E821EA6EEECFE6FF39
:10033A000101DB4BDC2BDCD7E9C0E9FFEAC0EAFFAD
:10034A00EECF66F1010E0001E925E96E000EEA2101
:10035A00EA6EEECF67F1EBC068F1ECC069F1EDC06F
:10036A006AF1F051000829E20101DB6BDC6B800EB7
:10037A00DC19006E800E005C04E10001F0510101FD
:10038A00DB5D1BE2120EDB25006E000EDC21016E26
:10039A00590E0024E16E010E0120E26EDB510001CC
:1003AA00EE25E96E0101DC510001EF21EA6EEECF84
:1003BA00E6FF0101DB4BDC2BDAD70001F051120F0B
:1003CA00006E016A000E0122590E00240101DD6F40
:1003DA00010E0120DE6F590EDF6F010EE06F80DE25
:1003EA00DDC1E1FFDEC1E2FF00C0E6FF590E006E8B
:0603FA00010E016E12006D
:10040000D8C1DFF0D9C1E0F0DAC1E1F07E0E010120
:10041000596FDA510E0F036E046A000E042204C0F5
:1004200000F0000E04BEFF0E016EFF0E00145A6FA6
:10043000FF0E03145B6F100E5C6FD8C05DF1DB6BB9
:10044000DC6B800EDC19006E800E005C02E1080E91
:10045000DB5D1BE2050EDB25006E000EDC21016E6C
:10046000590E0024E16E010E0120E26EDB51000105
:10047000D925E96E0101DC510001DA21EA6EEECFE7
:10048000E6FF0101DB4BDC2BDCD7DBC0E9FFDCC086
:10049000EAFFEECF66F1010E0001DB25E96E000EEA
:1004A000DC21EA6EEECF67F1DDC068F1DEC069F1F4
:1004B000E151000829E20101DB6BDC6B800EDC19E5
:1004C000006E800E005C04E10001E1510101DB5D82
:1004D0001BE2110EDB25006E000EDC21016E590EB1
:1004E0000024E16E010E0120E26EDB510001DF25E8
:1004F000E96E0101DC510001E021EA6EEECFE6FF7A
:100500000101DB4BDC2BDAD70001E151110F006E4A
:10051000016A000E0122590E00240101DD6F010E57
:100520000120DE6F590EDF6F010EE06FDEDDDDC1F1
:10053000E1FFDEC1E2FF00C0E6FF590E006E010ED2
:04054000016E120036
:0E054400ACB202D00000FCD7D7C1ADFF120050
:10055200F250026EF29E0500FF6A0150FE6E0050DC
:08056200FD6E02BEF28E1200D4
:10056A000101D56BD66BD1C1E9FFD2C1EAFFEE50CA
:10057A007E0A02E0006A7FD0010ED125E96E000EE4
:10058A00D221EA6EEECF04F0000E056E04C003F02D
:10059A00026A020ED125E96E000ED221EA6EEECF72
:1005AA0000F0000E016E025000120350011200C04A
:1005BA0008F001C009F0040E0024026E000E0120AA
:1005CA00036E0350D45D02E10250D35D02E2006A79
:1005DA0052D0030ED125D96E000ED221DA6EDE502A
:1005EA00D527000ED623066A076A010E085C016E3B
:1005FA00000E0958026E0250075C02E10150065CC7
:10060A0013E2040E0624006E000E0720016E00504D
:10061A00D125D96E0150D221DA6EDE50D527000ECF
:10062A00D623064A072AE1D7030E0824006E000ED5
:10063A000920016E0050D125D96E0150D221DA6EFF
:10064A00DE50D525006E000ED621016E00C0D5F110
:10065A0001C0D6F1FF0E0014026E01C003F0000EB5
:10066A000316000E031802E1FF0E021802E0006AE8
:08067A0002D0010E006E120017
:0C068200BAC000F0BBC001F063DF120042
:10068E00E4C0E1FFE5C0E2FFD1C1E6FFD2C1E6FF63
:10069E00D3C1E6FFE2C000F0E3C001F053DF00C0BB
:1006AE00C7F001C0C8F00101D46BD56BC7C0E6F12D
:1006BE00C8C0E7F1F7DC800ED519016E800E015C23
:1006CE0002E10050D45D10E2D4510001C725E96E5D
:1006DE000101D5510001C821EA6EEECFD7F12BDF13
:0A06EE000101D44BD52BE2D7120016
:1006F800030E0101D125E96E000ED221EA6E0C0E1F
:06070800EE5C006E120021
:10070E002150000A3EE1430E0101CB6F420ECC6F29
:10071E00010ECD6FD2C0E1FFD3C0E2FFCB0EE66E6D
:10072E00010EE66E030EE66ED0C000F0D1C001F0F1
:10073E0009DF00C0C7F001C0C8F00101C96BCA6B68
:10074E00C7C0E6F1C8C0E7F1ADDC800ECA19016E74
:10075E00800E015C02E10050C95D10E2C95100013A
:10076E00C725E96E0101CA510001C821EA6EEECF1C
:10077E00D7F1E1DE0101C94BCA2BE2D7020E216E81
:10078E0016D02150020A13E1010E4724006E000E0E
:10079E004820016E00C047F001C048F0000E485CD2
:1007AE0002E10A0E475C03E3216A476A486A1200B7
:1007BE00C9C1CCF1CAC1CDF183D0040E0101CB5D0C
:1007CE003BE3010EC925E96E000ECA21EA6EEE501A
:1007DE00310A03E1010E196E01D0196A020EC92504
:1007EE00E96E000ECA21EA6EEE50310A03E1010EE7
:1007FE001A6E01D01A6A030EC925E96E000ECA21BF
:10080E00EA6EEE50310A03E1010E1B6E01D01B6A37
:10081E00040EC925E96E000ECA21EA6EEE50310AA9
:10082E0003E1010E1C6E01D01C6A1D0ED16F000E6D
:10083E00D26F030ED36F24DF5AD00101030ECB5DAE
:10084E001FE3010EC925E96E000ECA21EA6EEECF36
:10085E0003F003C001F0006A020EC925D96E000E26
:10086E00CA21DA6EDE5000102D6E01C02EF0000E81
:10087E002E12490ED16F000ED26F030ED36F00DF12
:10088E0036D00101020ECB5D11E3010EC925E96ED2
:10089E00000ECA21EA6EEECF4DF0010E216E4E0E05
:1008AE00D16F000ED26F030ED36FEADE20D001019E
:1008BE002F0ED16F000ED26F170ED36FE1DE17D051
:1008CE00CCC1E9FFCDC1EAFFEE50530AD8B475D7BB
:1008DE00CCC1E9FFCDC1EAFFEE50540AAEE0CCC167
:1008EE00E9FFCDC1EAFFEE50480ACBE0E0D7120097
:1008FE00440E0001D46F050ED56FD70ED66F010EC4
:10090E00D76F6E0EBA6F020EBB6F000EBC6F000E6D
:10091E00BD6F800EBE6F020EBF6F000EC06F000E59
:10092E00C16F440E526E010E536E000E546E000EC9
:10093E00556EAC8A900EAB6E948E949C9EAA03D08C
:08094E00AECF00F0FBD7120050
:10095600C9C1E1FFCAC1E2FF7E0EE66E010E0101CA
:10096600CB6F000ECC6F800ECC19006E800E005C33
:1009760002E1030ECB5D15E280DC005201E1FCD7FB
:10098600CB51C925CF6FCC51CA21D06F77DECFC1ED
:10099600E1FFD0C1E2FF00C0E6FF0101CB4BCC2B4B
:1009A600E2D7010EC925E96E000ECA21EA6EEECF26
:1009B600CDF1000ECE6FCDC1CEF1CD6B020EC925A5
:1009C600E96E000ECA21EA6EEECF00F0000E016E4F
:1009D6000050CD130150CE13030ECB6F000ECC6F1B
:1009E600040ECD25016E000ECE21026E800ECC19AE
:1009F600006E800E0218005C02E10150CB5D15E22C
:100A06003CDC005201E1FCD7CB51C925CF6FCC515C
:100A1600CA21D06F33DECFC1E1FFD0C1E2FF00C0F3
:100A2600E6FF0101CB4BCC2BDBD7040ECD25006EA8
:080A3600000ECE21016E12003A
:100A3E00010E0001E66FBDC1E7F0BEC1E8F0BFC117
:100A4E00E9F0C0C1EAF0EB6BEC6BED6BEE6BEF6BAC
:100A5E00F06B8A0EF16F020EF26FD80EF36F010E6D
:0C0A6E00F46FE60E006E000E016E120028
:100A7A00010E0001C96FCA6BCB6BCC6BCD6BCE6B11
:100A8A00CF6B4E0ED06F010ED16FD80ED26F010E02
:0C0A9A00D36FC90E006E000E016E12003A
:100AA600010E0001D86FBDC1D9F0BEC1DAF0BFC1D9
:100AB600DBF0C0C1DCF0DD6BDE6BDF6BE06BE16BA6
:100AC600000EE26F040EE36FD80EE46F010EE56FC1
:0A0AD600D80E006E000E016E120033
:100AE000086A096A100E0C6E013408360936045083
:100AF000085E0550D8A0053C095ED8B007D0045068
:100B000008260550D8B0053C0926D8900036013695
:060B10000C2EEAD71200D2
:100B1600010E0101C925E96E000ECA21EA6EEECF6B
:100B2600CFF1000ED06FCFC1D0F1CF6B020EC92529
:100B3600E96E000ECA21EA6EEECF00F0000E016EDD
:100B46000050CF130150D013C9C1D1F1CAC1D2F19F
:100B5600CBC1D3F1CCC1D4F105DD005203E1006A6B
:100B6600016A3FD0F50E0001C36F000EC46FCFC1FE
:100B7600C5F0D0C1C6F0030E0101C925E96E000E0D
:100B8600CA21EA6EEECFC2F0CD6BCE6B010ECF5D01
:100B9600016E000ED059026E0250CE5D02E1015088
:100BA600CD5D1BE2CD510001C325E16E0101CE51A1
:100BB6000001C421E26E040E0101CD25006E000E77
:100BC600CE21016E0050C925E96E0150CA21EA6E98
:100BD600EECFE6FFCD4BCE2BD9D7C20E006E000E60
:040BE600016E12008A
:100BEA00C9C1D1F1CAC1D2F182DD00C0CDF1CE6B4B
:100BFA00CF6B000ECF5D02E1CD51CE5D21E2CE5129
:100C0A00CB25E16ECF51CC21E26E010EC925E96EEA
:100C1A00000ECA21EA6E0B0ECE25026E000ECF21FF
:100C2A00036EEECF00F0EECF01F002500024E96E21
:100C3A0003500120EA6EEECFE6FFCE4BCF2BD9D779
:060C4A00CDC100F0120014
:100C50000B6A0A6A096A00500402F4CF09F0F3CF64
:100C600008F001500502F4CF0BF0F3CF0AF000506A
:100C70000502F3500926F4500A22E86A0B220150BB
:100C80000402F3500926F4500A22E86A0B2208C035
:100C900000F009C001F00AC002F00BC003F012001E
:100CA000010E0101C925E96E000ECA21EA6EEECFE0
:100CB00000F0EECF01F0030E0024E96E000E0120DB
:080CC000EA6EEECF00F0120015
:100CC8000900F5CFE6FF0006FBE10106F9E1120095
:100CD800C00E946E8290829282948298829AB8868C
:100CE800020EB06E080EAF6EAC8405DEB888B88A06
:100CF800030E0B6E8A0E0C6E550E0D6E0D2EFED762
:100D08000C2EFCD70B2EFAD7000000002F0E926E87
:100D18008098C19AC188C186C194C182C1902C6A49
:100D28008088C29AC298C296C294C09AC098C08657
:100D3800C084C082C090C08EC28082848098829015
:100D480082928294D59ED59CD59AD598D596D584ED
:100D5800D592D5809E9C9E9AF2949D8C9D8A9F9C4C
:100D68009F8AF294D08EF28EF28CF28A82DE220E64
:100D78000101BD6F000EBE6F2A0EBF6F000EC06F5F
:100D88008EDE220E0101BD6F000EBE6F2A0EBF6FF0
:080D9800000EC06F50DE1200D6
:100DA0004DC0C5F12CC0C6F1C4CFC7F1C3CFC8F147
:100DB000C50E0101D16F010ED26F040ED36F67DC37
:100DC000828480988290829282942C50010F006ECF
:100DD00000C02CF0040E2C5CD8B02C6A31D0195213
:100DE00007E02C6A8088C29AC298C296C29434D016
:100DF0001A5208E0010E2C6E8280C29AC298C296E6
:100E0000C2842AD01B5208E0020E2C6E8282C29A43
:100E1000C298C286C29420D01C5208E0030E2C6EE9
:100E20008284C29AC288C296C29416D0195207E030
:100E30002C6A8088C29AC298C296C2940DD00CD0F7
:100E40002C50000ACCE02C50010AD2E02C50020AAF
:0A0E5000D9E02C50030AE0E0120084
:100E5A00AE507E0A0BE1560E0101C96F000ECA6F31
:100E6A0075DD00C0C5F101C0C6F101D03CD0010159
:100E7A00560EC96F000ECA6FC5C1CBF1C6C1CCF1FF
:100E8A0045DE000E011802E1000E00182CE023D006
:100E9A000101C20EC96F000ECA6F560ECB6F000E4B
:100EAA00CC6F9EDE00C0C5F1000EC66F560EC96F2C
:100EBA00000ECA6FC5C1CBF17DDC15D0C20E01018F
:100ECA00C96F000ECA6FE7DE0050000A01E102D0C6
:100EDA00216A18DC08D00001C251900AD9E0C25137
:080EEA00880AECE0F7D71200C2
:100EF200010E4724006E000E4820016E00C047F02C
:100F020001C048F02DC000F02EC001F0640E046E46
:100F1200000E056E9CDE540E046E000E056EDFDDC3
:100F22000150485C02E10050475C03E3C282476A19
:040F3200486A1200F7
:100F3600CDEC07F0CEDE060E0B6E130E0C6EAD0E6C
:100F46000D6E0D2EFED70C2EFCD70B2EFAD70000F9
:0A0F56000000216AD58EFFD7FFD7F7
:100F9A0010EE19F0390E006E010E016E600EF66E3B
:0E0FAA000F0EF76E000EF86E64EC06F01200EB
:040F60000101010189
:040F6400534F4B009C
:010F68000088
:080F69000013A20040A8B930FA
:020F7100FFFE81
:010F7300007D
:020F74000A0071
:100F7600526563656976656420736F6D657468692B
:080F86006E6720656C736500C5
:020F8E00000061
:040F9000544F4B006F
:010F9400005C
:040F9500484F4B0076
:020000040030CA
:0E000000000C1F1EFF8381FF0FC00FE00F409A
:00000001FF
