:0400000079EF07F09D
:1000080000C019F001C018F00BC017F00CC016F0B2
:100018000DC015F09EAC46D09D9CC4CF01F0006A7F
:10002800C3500026000E012200EC06F0000E046EFC
:10003800000E056E200E066E7F0E076E78EC06F039
:1000480000C030F001C031F002C032F003C033F01C
:100058003BEC05F00BEC07F000C030F001C031F0CC
:100068002A0E326E000E336E15EC06F02A0E306E34
:10007800000E316E5FEC06F00D0E3A6E7AD90A0E5C
:100088003A6E77D9150E0B6E4B0E0C6EBE0E0D6EBA
:100098000D2EFED70C2EFCD70B2EFAD700009E9CF7
:1000A8009D8CC28219C000F018C001F017C00BF077
:0A00B80016C00CF015C00DF0110089
:0800C2000AAE029E000E1200BE
:1000CA000B820BAE6FEF00F00368026801680068EC
:0800DA000A360232FF0E12008B
:0E00E200026A016A006A086A036A000E1200D0
:1000F0000B840BAE83EF00F0010E036E026A016AFF
:0A010000006A0A360232FF0E1200F8
:10010A000B800BAE91EF00F0026A0AAEFF0E026E90
:0C011A00016E006E0A360232FF0E120069
:100126000CB0D5EF00F00CA27BEF01F00E6A000ECA
:100136000264ECEF00F0F00E0214D8A4B7EF00F062
:10014600023A01380F0B02260138F00B016E003817
:100156000F0B01260038F00B006E08380F0B002637
:100166000838F00B086E0E84D89002BED0EF00F06F
:1001760008360036013602360E2A02BED0EF00F0EF
:1001860008360036013602360E2A02BED0EF00F0DF
:1001960008360036013602360E2A0E50036471EF19
:1001A60001F0035E0BBC08AE76EF01F0D880800E3E
:1001B60008640030000E002201220222D8A076EF49
:1001C60001F0023201320032034A7BEF01F076EF92
:1001D60001F001C002F000C001F008C000F0086A9A
:1001E600000E0E86026423EF01F0F00E0214D8A46E
:1001F6000BEF01F0023A01380F0B02260138F00B23
:10020600016E00380F0B01260038F00B006E0E84CD
:10021600D89002BED0EF00F00036013602360E2A24
:1002260002BED0EF00F00036013602360E2A02BEBC
:10023600D0EF00F00036013602360E2AD0EF00F07D
:1002460001C002F000C001F0006A000E0E960E8892
:10025600026450EF01F0F00E0214D8A43BEF01F057
:10026600023A01380F0B02260138F00B016E0E849C
:10027600D89002BED0EF00F0013602360E2A02BE3A
:10028600D0EF00F0013602360E2A02BED0EF00F0A3
:10029600013602360E2AD0EF00F001C002F0016AE4
:1002A600000E0E86026480EF01F0F00E0214D8A450
:1002B6005FEF01F0023A0E84D89002BED0EF00F054
:1002C60002360E2A02BED0EF00F002360E2A02BE19
:1002D600D0EF00F002360E2AD0EF00F0010E0C6EC1
:1002E60004DF83EF01F0020E0C6EE8DE83EF01F00F
:1002F600040E0C6EE7DE83EF01F0080E0C6EEEDEE8
:020306001200E3
:100308000C6A0E6A0250D8A49DEF01F001C002F0F9
:1003180000C001F0006A0E860250D8A49DEF01F0DB
:1003280001C002F0016A0E960E880250D8B4AFEFF1
:1003380001F00E50035ED8A4D8A0B4EF01F0D89015
:1003480002BEB9EF01F0003601360236032EA4EFE3
:1003580001F0B4EF01F0010E0C6EBFDEBCEF01F04E
:10036800020E0C6EC1DEBCEF01F0040E0C6EA5DEB1
:02037800120071
:0E037A00ACB202D00000FCD73AC0ADFF1200BA
:10038800086A096A100E0C6E0134083609360450E2
:10039800085E0550D8A0053C095ED8B007D00450C7
:1003A80008260550D8B0053C0926D89000360136F5
:0603B8000C2EEAD7120032
:1003BE000A6A0350D8A40A800750D8A40A820A50A9
:1003CE00D8B442EF02F0030AD8B4FBEF01F00AB042
:1003DE00F6EF01F006AE40EF02F03EEF02F002AE95
:1003EE003EEF02F040EF02F00250800B0A6E029ECA
:1003FE000650800B069E0A18D8B40CEF02F00A5075
:10040E00D8B43EEF02F040EF02F00750035CD8B4D0
:10041E0016EF02F0D8A032EF02F038EF02F00650DD
:10042E00025CD8B420EF02F0D8A032EF02F038EF21
:10043E0002F00550015CD8B42AEF02F0D8A032EFDA
:10044E0002F038EF02F00450005CD8B442EF02F034
:10045E00D8B038EF02F00A52D8B440EF02F03EEFB7
:10046E0002F00A52D8B43EEF02F040EF02F0D8800C
:0E047E001200D8901200D880D884120012000C
:10048C00025006180E6E086A096A0B6A035007645C
:10049C0039EF03F006500A6E068E028E03500B6E77
:1004AC000750036E000E0B6489EF02F00B50075ED1
:1004BC00D8B42AEF03F0070E0764F8EF02F0075EDA
:1004CC0000C008F001C000F002C001F0026A074E43
:1004DC002AEF03F00764CDEF02F0075E00C008F0CE
:1004EC0001C000F0016A074E2AEF03F00764ABEF7E
:1004FC0002F0075E00C008F0006A074E2AEF03F016
:10050C00076492EF02F00AC002F005C001F004C0CB
:10051C0000F0086A53EF04F0030E07649DEF02F03D
:10052C00075E08380F0B086E074E2AEF03F0D890C1
:10053C000832074E2AEF03F0D8900832074E2AEF04
:10054C0003F0D89008322AEF03F0030E0764BCEFD7
:10055C0002F0075E08380F0B086E0038F00B082607
:10056C0000380F0B006E074E2AEF03F0D8900032C4
:10057C000832074E2AEF03F0D89000320832074EAB
:10058C002AEF03F0D890003208322AEF03F0030E62
:10059C000764E4EF02F0075E08380F0B086E0038B2
:1005AC00F00B082600380F0B006E0138F00B0026FC
:1005BC0001380F0B016E074E2AEF03F0D890013271
:1005CC0000320832074E2AEF03F0D8900132003285
:1005DC000832074E2AEF03F0D8900132003208326D
:1005EC002AEF03F0030E076415EF03F0075E0838DB
:1005FC000F0B086E0038F00B082600380F0B006E3E
:10060C000138F00B002601380F0B016E0238F00B8D
:10061C00012602380F0B026E074E2AEF03F0D8901A
:10062C000232013200320832074E2AEF03F0D89022
:10063C000232013200320832074E2AEF03F0D89012
:10064C000232013200320832096A000E0EAE1EEF81
:10065C0004F0081E001E011E021E082A00220122A0
:10066C0002221EEF04F00750D8A43FEF03F053EF23
:10067C0004F0096A02C00AF0028E068E0750035C71
:10068C00076ED8B411EF04F0070E0764DFEF03F028
:10069C00075E0450096E0550046E0650056E066A1E
:1006AC00074E11EF04F0070E0764B4EF03F0075E7A
:1006BC000450096E0550046E056A074E11EF04F0E4
:1006CC00070E076492EF03F0075E0450096E046A8C
:1006DC00074E11EF04F0070E076479EF03F00AC020
:1006EC0002F053EF04F0030E076484EF03F0075E8F
:1006FC0009380F0B096E074E11EF04F0D890093230
:10070C00074E11EF04F0D8900932074E11EF04F0A8
:10071C00D890093211EF04F0030E0764A3EF03F035
:10072C00075E09380F0B096E0438F00B09260438E4
:10073C000F0B046E074E11EF04F0D89004320932FF
:10074C00074E11EF04F0D89004320932074E11EF26
:10075C0004F0D8900432093211EF04F0030E076450
:10076C00CBEF03F0075E09380F0B096E0438F00B62
:10077C00092604380F0B046E0538F00B04260538D7
:10078C000F0B056E074E11EF04F0D89005320432B2
:10079C000932074E11EF04F0D890053204320932B9
:1007AC00074E11EF04F0D89005320432093211EFE4
:1007BC0004F0030E0764FCEF03F0075E09380F0B1F
:1007CC00096E0438F00B092604380F0B046E05383B
:1007DC00F00B042605380F0B056E0638F00B0526BA
:1007EC0006380F0B066E074E11EF04F0D890063248
:1007FC00053204320932074E11EF04F0D89006325C
:10080C00053204320932074E11EF04F0D89006324B
:10081C00053204320932086A000E0EAE1EEF04F0E7
:10082C00091E041E051E061E092A04220522062284
:10083C0009500826045000220550012206500222BD
:10084C000EBE35EF04F0D8A044EF04F002320132B2
:10085C0000320832033E44EF04F04EEF04F0D8B0FF
:10086C0049EF04F0000E081E001E011E021E082A8D
:10087C000022012202220A7E49EF04F0010E0C6EC6
:10088C004CDC55EF04F0020E0C6E47DC55EF04F017
:10089C00040E0C6E14DC55EF04F0000E0C6E1200FE
:1008AC000050086E0150006E0250016E0350026E33
:1008BC00036A0B6A0C6A9E0E036E0A6A02AE73EF31
:1008CC0004F0081E001E011E021E082AD8B4002ABD
:1008DC00D8B4012AD8B4022A0A8E020E0C6E1DDC82
:0208EC001200F8
:1008EE007A0E266E030E276E3A0E286E000E296EB5
:1008FE00FF0E1A6EFF0E1B6E000E1C6E000E1D6E8E
:10090E00FF0E1E6EFF0E1F6E000E206E000E216E6D
:10091E00FF0E226EFF0E236E000E246E000E256E4D
:10092E00AC8A900EAB6E948E949C9EAA03D0AECFE2
:06093E0000F0FBD71200DF
:100944000B6A0C6A086A0350D8B426EF05F002C09B
:100954000AF0028E9E0E035E03AE16EF05F0036CE2
:10096400080E035CD8A0E3EF04F0036E083600C061
:1009740008F001C000F002C001F0026A080E035C36
:10098400D8A0E3EF04F0036E083600C008F001C0FD
:1009940000F0016A080E035CD8A0E3EF04F0036ED4
:1009A400083600C008F0006A080E035CD8A0E3EF24
:1009B40004F0036E0836086A0350D8A4D890EFEF09
:1009C40004F00350D8B4EFEF04F0D89002320132AF
:1009D40000320832032EE7EF04F00BBC08A000EF4E
:1009E40005F0D8A000EF05F0082AD8B4002AD8B43E
:1009F400012AD8B4022A02BE2AEF05F00AAE26EF75
:100A040005F0021E011E001E081E082AD8B4002A82
:100A1400D8B4012AD8B4022A26EF05F0026A016A82
:100A2400006A086A26EF05F00B800BAE31EF05F083
:100A3400026A0AAE31EF05F0026E016E006E086EB6
:100A44000A36023231EF05F00C6A000E32EF05F07F
:100A5400010E0C6E000E85EC00F032EF05F0FF0E77
:100A64000250036E0150026E0050016E0850006E79
:020A740012006E
:100A760033C000F0016A026A036AFF0E0016000E18
:100A8600011600C038F001C039F07F0E005C026E1E
:100A9600000E0158036E02C038F003C039F0800E14
:100AA6000318006E800E005C02E1000E025C21E27B
:100AB60030C004F031C005F032C006F033C007F094
:100AC600006A016A026A036A77DC000ED8B0010E7A
:100AD600006E005205E0006A016A026A036A55D098
:100AE600000E006E000E016E000E026E7F0E036E8B
:100AF6004CD0000E006E3950005C02E138501808E8
:100B060009E230C000F031C001F032C002F033C05B
:100B160003F03BD030C000F031C001F032C002F02B
:100B260033C003F00CDFBFDE00C034F001C035F087
:100B360002C036F003C037F030C004F031C005F013
:100B460032C006F033C007F037DC010ED8B0000E15
:100B5600006E005212E034C000F035C001F036C01D
:100B660002F037C003F0000E046E000E056E000E94
:100B7600066E7F0E076E87DC08D034C000F035C0E5
:0C0B860001F036C002F037C003F012008E
:100B92000900F5CFE6FF0006FBE10106F9E11200CC
:100BA200C00E946EB886B06ACF0EAF6EAC849EDE75
:100BB200B888020E0B6E040E0C6EBA0E0D6E0D2E60
:100BC200FED70C2EFCD70B2EFAD700000F0E926E1A
:100BD200C19AC188C186C194C182C180C29AC29899
:100BE200C296C284C09AC098C086C084C092C08097
:0E0BF200C08EC2809E9C9D8CF28EF28C1200F2
:100C00000050086E0150006E016A026A036A0B6AA6
:100C10000C6A960E036E0A6A00C001F008C000F06C
:0A0C2000086A026A84EC01F0120079
:100C2A00346A050E345C0AE234503224E16E000E56
:100C3A003320E26E200EE66E342AF3D73450322483
:100C4A00E16E000E3320E26EE66A34063450322436
:100C5A00356E000E3320366E0A0E046E000E056ED7
:100C6A0030C000F031C001F0C4EC01F008C000F05F
:100C7A0009C001F0300E002635C0E1FF36C0E2FFA0
:100C8A0000C0E6FF0A0E046E000E056E30C000F0CA
:100C9A0031C001F0C4EC01F000C030F001C031F005
:100CAA00000E011802E1000E001801E102D034061C
:040CBA00CDD7120080
:100CBE00336A30C0E9FF31C0EAFFEECF32F0325076
:100CCE00000A0EE032C03AF0BDEC01F0332A335088
:100CDE003024E96E000E3120EA6EEECF32F0EFD7FF
:020CEE001200F2
:100CF000086A096A000E07620364FDEF06F00250FD
:100D000006180A6E075003267E0ED8A08EEF06F056
:100D1000035ED8B002EF07F092EF06F0035ED8A0B2
:100D200007EF07F0028E068E02C00EF001C00BF036
:100D300000C00DF000500402F4CF0CF00150050289
:100D4000F4CF00F0F3CF08F00402F3500C26F45077
:100D50000822000E00220D500502F3500C26F4501C
:100D60000822000E002202500402F3500826F4501C
:100D7000002202500502016A000E0122F3500026F3
:100D8000F45001220D500602F3500826F4500022C0
:100D9000026A000E012202220B500602F3500026C6
:100DA000F4500122000E02220E500602F3500126DA
:100DB000F450022202BEE5EF06F008360036013696
:100DC00002360306D8B407EF07F0F8EF06F0D88034
:100DD000800E08640030000E002201220222D8A0FA
:100DE000F8EF06F0023201320032034A02EF07F058
:100DF0000AAE029E000E0AEF07F0010E71EC00F041
:100E00000AEF07F0020E65EC00F00AEF07F0040E9F
:060E100078EC00F0120076
:100E16000B6A0C6A0A6A0350D8B455EF07F0028EC3
:100E26008E0E035E03BE1DEF07F0D8B41DEF07F06C
:100E360059EF07F0036C080E035CD8A034EF07F0F7
:100E4600036E013602C001F0026A080E035CD8A0E8
:100E560034EF07F00136016A0350D8A4D8903EEF6C
:100E660007F00350D8B43EEF07F0D89002320132B3
:100E7600032E38EF07F00BBC01A04BEF07F0D8A00C
:100E86004BEF07F0012AD8B4022A02BE68EF07F03A
:100E96000AAE6EEF07F0021E011E012AD8B4022A1E
:100EA6006EEF07F0026A016A6EEF07F00B800BAE79
:100EB60072EF07F0026A0AAE72EF07F0FF0E026EDB
:100EC600016E0A36023272EF07F0010E0C6E85ECE7
:100ED60000F074EF07F0000E0C6E74EF07F0FF0ED3
:0C0EE6000C6E0150006E0250016E1200F4
:100EF20057DE150E0B6E4B0E0C6EBE0E0D6E0D2ECA
:100F0200FED70C2EFCD70B2EFAD70000C282FFD7D9
:020F1200FFD707
:020000040030CA
:0E000000010C1F1EFF8381FF0FC00FE00F4099
:00000001FF
