:04000000A5EF00F078
:1000080000C016F001C015F0F29AF2A423D0000146
:100018006D6B6E6B800E6E19006E800E1E18005C84
:1000280002E11D506D5D16E26DC000F06EC001F07A
:100038000036009001361F0E0024E96E000E0120E4
:10004800EA6EEECF6FF0EECF70F020D800016D4B66
:100058006E2BE0D7F294F28A16C000F015C001F0BA
:02006800110085
:10006A0092909292929492969298929A9490949252
:10007A00D59ED59CD59AD598D596D594D582D59026
:0A008A00F28EF29CF298F28A120046
:10009400010E056E000E066E6FC0E9FF70C0EAFF28
:1000A400EECF01F0EECF02F0800E0618006E800E47
:1000B4000218005C02E10150055C3CE205C000F05E
:1000C40006C001F000360090013600016F51002691
:1000D4007051012200C0E9FF01C0EAFF3F0EEE1497
:1000E400806E00C0E9FF01C0EAFFC00EEE14036E8B
:1000F400EECF04F0000E0416060E026E03C000F0EC
:1001040004C001F0025007E001320032019E01BC3C
:10011400018EFF0FF8D700C082FF080E0C6EC90EC7
:100124000D6E0D2EFED70C2EFCD700000000054AE4
:06013400062AB2D71200FA
:10013A000900F5CFE6FF0006FBE10106F9E112002E
:0C014A00D6EC00F08DDFD58EFFD7FFD77C
:1001AC0010EE17F0560E006E010E016E560EF66E26
:0E01BC00010EF76E000EF86E9DEC00F01200C2
:060156000200FE000000A3
:02015C00080099
:10015E0041005300610053002F005300170053005D
:10016E00080002001C006000C00030000E000200FB
:02017E0000007F
:100180000800C00070002C0027003800E00080004C
:0201900000006D
:0E019200060000000000000000000000000059
:0C01A0000500FE008000800080000000D0
:020000040030CA
:0E000000010C1F1EFF8381FF0FC00FE00F4099
:00000001FF
