:0400000039EF00F0E4
:1000080000C016F001C015F0F29AF2A40FD0016AF0
:1000180080B0012A0150000802E2006A02D0010EF5
:10002800006E00B002D0809001D08080F294F28AF5
:0A00380016C000F015C001F0110021
:100042000900F5CFE6FF0006FBE10106F9E1120027
:10005200926A94909492D59ED59CD59AD598D5962D
:10006200D584D592D590F28EF29CF298F28A120043
:0C007200EFDFD58EFF0E816EFFD7FFD7A9
:020000040030CA
:0E000000010C1F1EFF8381FF0FC00FE00F4099
:00000001FF
